{
  "_format": "hh-sol-artifact-1",
  "contractName": "ChatRoom",
  "sourceName": "contracts/ChatRoom.sol",
  "abi": [
    {
      "inputs": [],
      "name": "EmptyMessage",
      "type": "error"
    },
    {
      "inputs": [],
      "name": "MessageDoesntExist",
      "type": "error"
    },
    {
      "anonymous": false,
      "inputs": [
        {
          "indexed": true,
          "internalType": "uint256",
          "name": "id",
          "type": "uint256"
        },
        {
          "indexed": true,
          "internalType": "address",
          "name": "likedBy",
          "type": "address"
        },
        {
          "indexed": true,
          "internalType": "address",
          "name": "author",
          "type": "address"
        }
      ],
      "name": "MessageLiked",
      "type": "event"
    },
    {
      "anonymous": false,
      "inputs": [
        {
          "indexed": true,
          "internalType": "uint256",
          "name": "id",
          "type": "uint256"
        },
        {
          "indexed": true,
          "internalType": "address",
          "name": "author",
          "type": "address"
        }
      ],
      "name": "MessageSent",
      "type": "event"
    },
    {
      "inputs": [],
      "name": "getLast10Messages",
      "outputs": [
        {
          "components": [
            {
              "internalType": "uint256",
              "name": "timestamp",
              "type": "uint256"
            },
            {
              "internalType": "uint256",
              "name": "likes",
              "type": "uint256"
            },
            {
              "internalType": "uint256",
              "name": "id",
              "type": "uint256"
            },
            {
              "internalType": "string",
              "name": "content",
              "type": "string"
            },
            {
              "internalType": "address",
              "name": "author",
              "type": "address"
            }
          ],
          "internalType": "struct ChatRoom.Message[10]",
          "name": "",
          "type": "tuple[10]"
        }
      ],
      "stateMutability": "view",
      "type": "function"
    },
    {
      "inputs": [
        {
          "internalType": "uint256",
          "name": "_id",
          "type": "uint256"
        }
      ],
      "name": "likeMessage",
      "outputs": [],
      "stateMutability": "nonpayable",
      "type": "function"
    },
    {
      "inputs": [],
      "name": "nextId",
      "outputs": [
        {
          "internalType": "uint256",
          "name": "",
          "type": "uint256"
        }
      ],
      "stateMutability": "view",
      "type": "function"
    },
    {
      "inputs": [
        {
          "internalType": "string",
          "name": "content",
          "type": "string"
        },
        {
          "internalType": "bytes",
          "name": "signature",
          "type": "bytes"
        }
      ],
      "name": "sendMessage",
      "outputs": [],
      "stateMutability": "nonpayable",
      "type": "function"
    }
  ],
  "bytecode": "0x6080604052600160005534801561001557600080fd5b50610d96806100256000396000f3fe608060405234801561001057600080fd5b506004361061004c5760003560e01c80634baeb4db1461005157806361b8ce8c1461006d578063cd1171c41461008b578063f6284a9a146100a9575b600080fd5b61006b6004803603810190610066919061085a565b6100c5565b005b61007561036d565b6040516100829190610896565b60405180910390f35b610093610373565b6040516100a09190610ac6565b60405180910390f35b6100c360048036038101906100be9190610ba3565b610540565b005b6000600160008381526020019081526020016000206040518060a001604052908160008201548152602001600182015481526020016002820154815260200160038201805461011390610c53565b80601f016020809104026020016040519081016040528092919081815260200182805461013f90610c53565b801561018c5780601f106101615761010080835404028352916020019161018c565b820191906000526020600020905b81548152906001019060200180831161016f57829003601f168201915b505050505081526020016004820160009054906101000a900473ffffffffffffffffffffffffffffffffffffffff1673ffffffffffffffffffffffffffffffffffffffff1673ffffffffffffffffffffffffffffffffffffffff16815250509050600073ffffffffffffffffffffffffffffffffffffffff16816080015173ffffffffffffffffffffffffffffffffffffffff161415610258576040517f998c3a9600000000000000000000000000000000000000000000000000000000815260040160405180910390fd5b80602001805161026790610cb4565b908181525050806001600084815260200190815260200160002060008201518160000155602082015181600101556040820151816002015560608201518160030190805190602001906102bb929190610704565b5060808201518160040160006101000a81548173ffffffffffffffffffffffffffffffffffffffff021916908373ffffffffffffffffffffffffffffffffffffffff160217905550905050806080015173ffffffffffffffffffffffffffffffffffffffff163373ffffffffffffffffffffffffffffffffffffffff1682604001517fb02eb01111217c9df517515cdcbdd4156f24da409ecaab6f56c70c1fcb2b0ab260405160405180910390a45050565b60005481565b61037b61078a565b61038361078a565b60016000541415610397578091505061053d565b6000600a60016000546103aa9190610cfd565b106103b657600a6103c6565b60016000546103c59190610cfd565b5b905060005b8181101561053657600160008260016000546103e79190610cfd565b6103f19190610cfd565b81526020019081526020016000206040518060a001604052908160008201548152602001600182015481526020016002820154815260200160038201805461043890610c53565b80601f016020809104026020016040519081016040528092919081815260200182805461046490610c53565b80156104b15780601f10610486576101008083540402835291602001916104b1565b820191906000526020600020905b81548152906001019060200180831161049457829003601f168201915b505050505081526020016004820160009054906101000a900473ffffffffffffffffffffffffffffffffffffffff1673ffffffffffffffffffffffffffffffffffffffff1673ffffffffffffffffffffffffffffffffffffffff16815250508382600a811061052357610522610d31565b5b60200201819052508060010190506103cb565b5081925050505b90565b600084849050141561057e576040517fbb1b658000000000000000000000000000000000000000000000000000000000815260040160405180910390fd5b60008054905060006040518060a001604052804281526020016000815260200183815260200187878080601f016020809104026020016040519081016040528093929190818152602001838380828437600081840152601f19601f8201169050808301925050505050505081526020013373ffffffffffffffffffffffffffffffffffffffff16815250905080600160008481526020019081526020016000206000820151816000015560208201518160010155604082015181600201556060820151816003019080519060200190610658929190610704565b5060808201518160040160006101000a81548173ffffffffffffffffffffffffffffffffffffffff021916908373ffffffffffffffffffffffffffffffffffffffff16021790555090505060008081546106b190610cb4565b919050819055503373ffffffffffffffffffffffffffffffffffffffff16827f65095a72c3522c47dd7ec14e6af04b2faa2955e46bb286d544dad8c82809edd260405160405180910390a3505050505050565b82805461071090610c53565b90600052602060002090601f0160209004810192826107325760008555610779565b82601f1061074b57805160ff1916838001178555610779565b82800160010185558215610779579182015b8281111561077857825182559160200191906001019061075d565b5b50905061078691906107b8565b5090565b604051806101400160405280600a905b6107a26107d5565b81526020019060019003908161079a5790505090565b5b808211156107d15760008160009055506001016107b9565b5090565b6040518060a0016040528060008152602001600081526020016000815260200160608152602001600073ffffffffffffffffffffffffffffffffffffffff1681525090565b600080fd5b600080fd5b6000819050919050565b61083781610824565b811461084257600080fd5b50565b6000813590506108548161082e565b92915050565b6000602082840312156108705761086f61081a565b5b600061087e84828501610845565b91505092915050565b61089081610824565b82525050565b60006020820190506108ab6000830184610887565b92915050565b6000600a9050919050565b600081905092915050565b6000819050919050565b6108da81610824565b82525050565b600081519050919050565b600082825260208201905092915050565b60005b8381101561091a5780820151818401526020810190506108ff565b83811115610929576000848401525b50505050565b6000601f19601f8301169050919050565b600061094b826108e0565b61095581856108eb565b93506109658185602086016108fc565b61096e8161092f565b840191505092915050565b600073ffffffffffffffffffffffffffffffffffffffff82169050919050565b60006109a482610979565b9050919050565b6109b481610999565b82525050565b600060a0830160008301516109d260008601826108d1565b5060208301516109e560208601826108d1565b5060408301516109f860408601826108d1565b5060608301518482036060860152610a108282610940565b9150506080830151610a2560808601826109ab565b508091505092915050565b6000610a3c83836109ba565b905092915050565b6000602082019050919050565b6000610a5c826108b1565b610a6681856108bc565b935083602082028501610a78856108c7565b8060005b85811015610ab45784840389528151610a958582610a30565b9450610aa083610a44565b925060208a01995050600181019050610a7c565b50829750879550505050505092915050565b60006020820190508181036000830152610ae08184610a51565b905092915050565b600080fd5b600080fd5b600080fd5b60008083601f840112610b0d57610b0c610ae8565b5b8235905067ffffffffffffffff811115610b2a57610b29610aed565b5b602083019150836001820283011115610b4657610b45610af2565b5b9250929050565b60008083601f840112610b6357610b62610ae8565b5b8235905067ffffffffffffffff811115610b8057610b7f610aed565b5b602083019150836001820283011115610b9c57610b9b610af2565b5b9250929050565b60008060008060408587031215610bbd57610bbc61081a565b5b600085013567ffffffffffffffff811115610bdb57610bda61081f565b5b610be787828801610af7565b9450945050602085013567ffffffffffffffff811115610c0a57610c0961081f565b5b610c1687828801610b4d565b925092505092959194509250565b7f4e487b7100000000000000000000000000000000000000000000000000000000600052602260045260246000fd5b60006002820490506001821680610c6b57607f821691505b60208210811415610c7f57610c7e610c24565b5b50919050565b7f4e487b7100000000000000000000000000000000000000000000000000000000600052601160045260246000fd5b6000610cbf82610824565b91507fffffffffffffffffffffffffffffffffffffffffffffffffffffffffffffffff821415610cf257610cf1610c85565b5b600182019050919050565b6000610d0882610824565b9150610d1383610824565b925082821015610d2657610d25610c85565b5b828203905092915050565b7f4e487b7100000000000000000000000000000000000000000000000000000000600052603260045260246000fdfea264697066735822122028664c1a9c243c2705970118f9948696a21dbdec6a1a15888137aeb639dc1ce664736f6c63430008090033",
  "linkReferences": {},
  "deployedLinkReferences": {}
}